:1000000012C02CC02BC02AC029C04CC027C026C09B
:1000100026C024C023C022C021C020C01FC01EC0D3
:100020001DC01CC01BC011241FBECFE5D4E0DEBF25
:10003000CDBF10E0A0E6B0E0E2E1F6E002C005903E
:100040000D92A436B107D9F710E0A4E6B0E001C0E4
:100050001D92AD36B107E1F7ECD0D9C2D1CF1F92D6
:100060000F920FB60F9211248F9380916B008F3FE8
:1000700029F080916B008F5F80936B0080916C0002
:100080008F3F29F080916C008F5F80936C0080918E
:100090006A008F5F80936A008F910F900FBE0F9060
:1000A0001F9018951F920F920FB60F921124CF92A6
:1000B000DF92EF92FF920F931F932F933F934F93F3
:1000C0005F936F937F938F939F93AF93BF93EF93C0
:1000D000FF930EB406FE0AC086B597B590936500EF
:1000E000809364008EB58F7B8EBD8AC006B517B530
:1000F00026E636E646E65FE36091600070916100B7
:1001000080916200909163001FD26B017C0180910D
:100110006400909165009801281B390BB90180E0BB
:1001200090E084D120ED3CEC4CEC5DE30DD29B01E2
:10013000AC01C701B601EAD0609360007093610022
:1001400080936200909363002EB520642EBD2091B1
:100150006B00223008F054C03DD110926C00AB010E
:10016000405C5D434130504408F04AC0603A4AE583
:100170007407F0F421E030E03093670020936600CC
:1001800000EC1DE520E030E0D901C801861B970B8B
:10019000A109B10933E0B595A795979587953A954B
:1001A000D1F7805C9F4F909369008093680028C0CE
:1001B000613EE0E67E07D0F0109267001092660084
:1001C000CB01A0E0B0E0805C9D45A109B10923E02E
:1001D000B595A795979587952A95D1F7BC01605C51
:1001E0007F4F70936900609368000AC082E090E0DE
:1001F00090936700809366001092690010926800E7
:1002000010926B00FF91EF91BF91AF919F918F91F1
:100210007F916F915F914F913F912F911F910F911E
:10022000FF90EF90DF90CF900F900FBE0F901F9038
:100230001895C19AC29A929A959894989398B99A57
:10024000BA9A8A9A8D9A8C9A8B9AA39AA29AB898FB
:100250001FBC81EC8EBD84E289BF78948CB59DB5BE
:100260008CB59DB52CB53DB54091680050916900A5
:10027000337081E02417350708F080E090916C001E
:100280009F3120F0AA9AAB9880E00EC0AB9A2091E3
:10029000680030916900232B21F490916A0097FF48
:1002A00002C0AA9801C0AA9A209166003091670006
:1002B00021303105E9F078F02230310589F6C29A13
:1002C000C19A95E09A95F1F70000882311F0959A6C
:1002D0000DC095980BC0C29A959895E09A95F1F744
:1002E0000000882311F0C19801C0C19A949AB8CF38
:1002F0009498C19A95E09A95F1F70000882311F03F
:10030000C29801C0C29A959AABCF5058BB27AA2772
:100310000ED0E0C0D1D030F0D6D020F031F49F3FE5
:1003200011F41EF4C6C00EF4E095E7FBBCC0E92F43
:10033000E2D080F3BA17620773078407950718F0B5
:1003400071F49EF5FAC00EF4E0950B2EBA2FA02D95
:100350000B01B90190010C01CA01A0011124FF2772
:10036000591B99F0593F50F4503E68F11A16F0406D
:10037000A22F232F342F4427585FF3CF469537956C
:100380002795A795F0405395C9F77EF41F16BA0B31
:10039000620B730B840BBAF09150A1F0FF0FBB1FDF
:1003A000661F771F881FC2F70EC0BA0F621F731F28
:1003B000841F48F4879577956795B795F7959E3F85
:1003C00008F0B3CF9395880F08F09927EE0F979513
:1003D0008795089598D088F09F5790F0B92F992766
:1003E000B751A0F0D1F0660F771F881F991F1AF040
:1003F000BA95C9F712C0B13081F09FD0B1E008952D
:100400009CC0672F782F8827B85F39F0B93FCCF3AD
:10041000869577956795B395D9F73EF49095809535
:10042000709561957F4F8F4F9F4F0895E89409C055
:1004300097FB3EF490958095709561957F4F8F4F17
:100440009F4F9923A9F0F92F96E9BB279395F6952D
:10045000879577956795B795F111F8CFFAF4BB0FAB
:1004600011F460FF1BC06F5F7F4F8F4F9F4F16C00F
:10047000882311F096E911C0772321F09EE8872F99
:10048000762F05C0662371F096E8862F70E060E055
:100490002AF09A95660F771F881FDAF7880F9695CE
:1004A000879597F9089597F99F6780E870E060E075
:1004B00008959FEF80EC089500240A9416161706FD
:1004C00018060906089500240A9412161306140645
:1004D00005060895092E0394000C11F4882352F0A8
:1004E000BB0F40F4BF2B11F460FF04C06F5F7F4F60
:1004F0008F4F9F4F089557FD9058440F551F59F047
:100500005F3F71F04795880F97FB991F61F09F3F00
:1005100079F087950895121613061406551FF2CF29
:100520004695F1DF08C0161617061806991FF1CF79
:1005300086957105610508940895E894BB276627A0
:100540007727CB0197F908950BD0C4CFB5DF28F0FA
:10055000BADF18F0952309F0A6CFABCF1124EECF68
:10056000CADFA0F3959FD1F3950F50E0551F629F0E
:10057000F001729FBB27F00DB11D639FAA27F00DFC
:10058000B11DAA1F649F6627B00DA11D661F829F23
:100590002227B00DA11D621F739FB00DA11D621F08
:1005A000839FA00D611D221F749F3327A00D611D25
:1005B000231F849F600D211D822F762F6A2F112407
:1005C0009F5750408AF0E1F088234AF0EE0FFF1F5A
:1005D000BB1F661F771F881F91505040A9F79E3F91
:1005E000510570F060CFAACF5F3FECF3983EDCF38B
:1005F000869577956795B795F795E7959F5FC1F7CE
:10060000FE2B880F911D9695879597F90895F8947C
:02061000FFCF1A
:040612000080BB4663
:00000001FF
